{
  "transactions": [
    {
      "hash": "0xfff6cf38ea51a6f870aa54aa2964ffc2c1b7d19aa4166f31641edcccd3100a87",
      "transactionType": "CALL",
      "contractName": null,
      "contractAddress": "0xacc201a61afa60448f0492db59c7adc0b7b3900b",
      "function": "applyChainUpdates(uint64[],(uint64,bytes[],bytes,(bool,uint128,uint128),(bool,uint128,uint128))[])",
      "arguments": [
        "[]",
        "[(6898391096552792247, [0x000000000000000000000000a88d350e9ee585e8a96c841dca262b357c145558], 0x000000000000000000000000b5cbba4ef8911acc764983df5f1155a4d2098c37, (false, 0, 0), (false, 0, 0))]"
      ],
      "transaction": {
        "from": "0xa19da2097332e962faabd6171587bce04b7878ef",
        "to": "0xacc201a61afa60448f0492db59c7adc0b7b3900b",
        "gas": "0x6a352",
        "value": "0x0",
        "input": "0xe8a1da17000000000000000000000000000000000000000000000000000000000000004000000000000000000000000000000000000000000000000000000000000000600000000000000000000000000000000000000000000000000000000000000000000000000000000000000000000000000000000000000000000000000000000100000000000000000000000000000000000000000000000000000000000000200000000000000000000000000000000000000000000000005fbc02272fbf20b7000000000000000000000000000000000000000000000000000000000000012000000000000000000000000000000000000000000000000000000000000001a0000000000000000000000000000000000000000000000000000000000000000000000000000000000000000000000000000000000000000000000000000000000000000000000000000000000000000000000000000000000000000000000000000000000000000000000000000000000000000000000000000000000000000000000000000000000000000000000000000000000000000000000000000000000000000000000000000000000000000000000000000000000000000000000000000000000000000000000000000000000000000000000000000000000000000100000000000000000000000000000000000000000000000000000000000000200000000000000000000000000000000000000000000000000000000000000020000000000000000000000000a88d350e9ee585e8a96c841dca262b357c1455580000000000000000000000000000000000000000000000000000000000000020000000000000000000000000b5cbba4ef8911acc764983df5f1155a4d2098c37",
        "nonce": "0x23",
        "chainId": "0xaa36a7"
      },
      "additionalContracts": [],
      "isFixedGasLimit": false
    }
  ],
  "receipts": [
    {
      "status": "0x1",
      "cumulativeGasUsed": "0x504a93",
      "logs": [
        {
          "address": "0xacc201a61afa60448f0492db59c7adc0b7b3900b",
          "topics": [
            "0x7d628c9a1796743d365ab521a8b2a4686e419b3269919dc9145ea2ce853b54ea",
            "0x0000000000000000000000000000000000000000000000005fbc02272fbf20b7"
          ],
          "data": "0x00000000000000000000000000000000000000000000000000000000000000200000000000000000000000000000000000000000000000000000000000000020000000000000000000000000a88d350e9ee585e8a96c841dca262b357c145558",
          "blockHash": "0xabcddef0d36103361d25aa39eea3d6efe76314a4c7d621ae1da8be93e9833549",
          "blockNumber": "0x9f68b5",
          "blockTimestamp": "0x69b5b738",
          "transactionHash": "0xfff6cf38ea51a6f870aa54aa2964ffc2c1b7d19aa4166f31641edcccd3100a87",
          "transactionIndex": "0x3a",
          "logIndex": "0x52",
          "removed": false
        },
        {
          "address": "0xacc201a61afa60448f0492db59c7adc0b7b3900b",
          "topics": [
            "0x8d340f17e19058004c20453540862a9c62778504476f6756755cb33bcd6c38c2"
          ],
          "data": "0x0000000000000000000000000000000000000000000000005fbc02272fbf20b700000000000000000000000000000000000000000000000000000000000001000000000000000000000000000000000000000000000000000000000000000000000000000000000000000000000000000000000000000000000000000000000000000000000000000000000000000000000000000000000000000000000000000000000000000000000000000000000000000000000000000000000000000000000000000000000000000000000000000000000000000000000000000000000000000000000000000000000000000000000000000000000000000000000000000000000000000000000000000000000000000000000000000000000000000020000000000000000000000000b5cbba4ef8911acc764983df5f1155a4d2098c37",
          "blockHash": "0xabcddef0d36103361d25aa39eea3d6efe76314a4c7d621ae1da8be93e9833549",
          "blockNumber": "0x9f68b5",
          "blockTimestamp": "0x69b5b738",
          "transactionHash": "0xfff6cf38ea51a6f870aa54aa2964ffc2c1b7d19aa4166f31641edcccd3100a87",
          "transactionIndex": "0x3a",
          "logIndex": "0x53",
          "removed": false
        }
      ],
      "logsBloom": "0x00000000000000400000000000000000000000000000000000000000000000000000000000000000000000000000000000000000000000000004000000000004000000000000000000000000040000000000000000000000000000000000000000000000000000000000000000000040000000000000000000000000000000400000000000000000000000000000000000000000000000000000000000000000000000000000008000000000000000000000000000000000000002040000000000000000000000000000000000000000000000000000000000000000000000000000000000000000000000000000000000000000008000000102000000000000",
      "type": "0x2",
      "transactionHash": "0xfff6cf38ea51a6f870aa54aa2964ffc2c1b7d19aa4166f31641edcccd3100a87",
      "transactionIndex": "0x3a",
      "blockHash": "0xabcddef0d36103361d25aa39eea3d6efe76314a4c7d621ae1da8be93e9833549",
      "blockNumber": "0x9f68b5",
      "gasUsed": "0x4ce48",
      "effectiveGasPrice": "0xf4249",
      "from": "0xa19da2097332e962faabd6171587bce04b7878ef",
      "to": "0xacc201a61afa60448f0492db59c7adc0b7b3900b",
      "contractAddress": null
    }
  ],
  "libraries": [],
  "pending": [],
  "returns": {},
  "timestamp": 1773516602450,
  "chain": 11155111,
  "commit": "11c2179"
}