{
  "transactions": [
    {
      "hash": "0x311635f35903f28ccf0c763acdadecb36f77e19c28ad61963f03a57f3b6a0e02",
      "transactionType": "CALL",
      "contractName": null,
      "contractAddress": "0x779877a7b0d9e8603169ddbd7836e478b4624789",
      "function": "approve(address,uint256)",
      "arguments": [
        "0x0BF3dE8c5D3e8A2B34D2BEeB17ABfCeBaf363A59",
        "31690695438525641"
      ],
      "transaction": {
        "from": "0xa19da2097332e962faabd6171587bce04b7878ef",
        "to": "0x779877a7b0d9e8603169ddbd7836e478b4624789",
        "gas": "0x1081f",
        "value": "0x0",
        "input": "0x095ea7b30000000000000000000000000bf3de8c5d3e8a2b34d2beeb17abfcebaf363a5900000000000000000000000000000000000000000000000000709685044c64c9",
        "nonce": "0x29",
        "chainId": "0xaa36a7"
      },
      "additionalContracts": [],
      "isFixedGasLimit": false
    },
    {
      "hash": "0xf77b2db8bd19d7fb36627484184bc5927c5d7b44548f2b5907463ab82ca8697b",
      "transactionType": "CALL",
      "contractName": null,
      "contractAddress": "0x974fdd7f24b115e47ca15cc5b0703ef5277237e0",
      "function": "approve(address,uint256)",
      "arguments": [
        "0x0BF3dE8c5D3e8A2B34D2BEeB17ABfCeBaf363A59",
        "100000"
      ],
      "transaction": {
        "from": "0xa19da2097332e962faabd6171587bce04b7878ef",
        "to": "0x974fdd7f24b115e47ca15cc5b0703ef5277237e0",
        "gas": "0x10c25",
        "value": "0x0",
        "input": "0x095ea7b30000000000000000000000000bf3de8c5d3e8a2b34d2beeb17abfcebaf363a5900000000000000000000000000000000000000000000000000000000000186a0",
        "nonce": "0x2a",
        "chainId": "0xaa36a7"
      },
      "additionalContracts": [],
      "isFixedGasLimit": false
    },
    {
      "hash": "0x01aee5d57de84ae0fbda3beaca5ea8515f44433b17867c0d00acf4a02fe1689c",
      "transactionType": "CALL",
      "contractName": null,
      "contractAddress": "0x0bf3de8c5d3e8a2b34d2beeb17abfcebaf363a59",
      "function": "ccipSend(uint64,(bytes,bytes,(address,uint256)[],address,bytes))",
      "arguments": [
        "6898391096552792247",
        "(0x000000000000000000000000a19da2097332e962faabd6171587bce04b7878ef, 0x, [(0x974FDD7F24B115E47cA15Cc5B0703EF5277237e0, 100000)], 0x779877A7B0D9E8603169DdbD7836e478b4624789, 0x97a657c9000000000000000000000000000000000000000000000000000000000007a120)"
      ],
      "transaction": {
        "from": "0xa19da2097332e962faabd6171587bce04b7878ef",
        "to": "0x0bf3de8c5d3e8a2b34d2beeb17abfcebaf363a59",
        "gas": "0x6c2c9",
        "value": "0x0",
        "input": "0x96f4e9f90000000000000000000000000000000000000000000000005fbc02272fbf20b7000000000000000000000000000000000000000000000000000000000000004000000000000000000000000000000000000000000000000000000000000000a000000000000000000000000000000000000000000000000000000000000000e00000000000000000000000000000000000000000000000000000000000000100000000000000000000000000779877a7b0d9e8603169ddbd7836e478b462478900000000000000000000000000000000000000000000000000000000000001600000000000000000000000000000000000000000000000000000000000000020000000000000000000000000a19da2097332e962faabd6171587bce04b7878ef00000000000000000000000000000000000000000000000000000000000000000000000000000000000000000000000000000000000000000000000000000001000000000000000000000000974fdd7f24b115e47ca15cc5b0703ef5277237e000000000000000000000000000000000000000000000000000000000000186a0000000000000000000000000000000000000000000000000000000000000002497a657c9000000000000000000000000000000000000000000000000000000000007a12000000000000000000000000000000000000000000000000000000000",
        "nonce": "0x2b",
        "chainId": "0xaa36a7"
      },
      "additionalContracts": [],
      "isFixedGasLimit": false
    }
  ],
  "receipts": [
    {
      "status": "0x1",
      "cumulativeGasUsed": "0xa5e658",
      "logs": [
        {
          "address": "0x779877a7b0d9e8603169ddbd7836e478b4624789",
          "topics": [
            "0x8c5be1e5ebec7d5bd14f71427d1e84f3dd0314c0f7b2291e5b200ac8c7c3b925",
            "0x000000000000000000000000a19da2097332e962faabd6171587bce04b7878ef",
            "0x0000000000000000000000000bf3de8c5d3e8a2b34d2beeb17abfcebaf363a59"
          ],
          "data": "0x00000000000000000000000000000000000000000000000000709685044c64c9",
          "blockHash": "0x750b4a30e7ed0dc5e64c86775df1b3d73f22985ee0d65dfbbaf0375447d434b5",
          "blockNumber": "0x9f68e8",
          "blockTimestamp": "0x69b5ba08",
          "transactionHash": "0x311635f35903f28ccf0c763acdadecb36f77e19c28ad61963f03a57f3b6a0e02",
          "transactionIndex": "0x67",
          "logIndex": "0xc2",
          "removed": false
        }
      ],
      "logsBloom": "0x00000004000040100000000000000000000000000000000000000000000000000000000000000100000000000000000000000000000000000000000000200000000000000000000000000000000000000000000000000000000000000000000000000000000100000000000000000000000000000000000000000000000000000000000000000000000000000000800000000000000000000000000000000000020000000000080000000000800000000000000000000000000000000000000000000000000000000000000000000000000000000000000100000000000000000010000000000000000000000000000000000000000000000000000000000000",
      "type": "0x2",
      "transactionHash": "0x311635f35903f28ccf0c763acdadecb36f77e19c28ad61963f03a57f3b6a0e02",
      "transactionIndex": "0x67",
      "blockHash": "0x750b4a30e7ed0dc5e64c86775df1b3d73f22985ee0d65dfbbaf0375447d434b5",
      "blockNumber": "0x9f68e8",
      "gasUsed": "0xb499",
      "effectiveGasPrice": "0xf4249",
      "from": "0xa19da2097332e962faabd6171587bce04b7878ef",
      "to": "0x779877a7b0d9e8603169ddbd7836e478b4624789",
      "contractAddress": null
    },
    {
      "status": "0x1",
      "cumulativeGasUsed": "0xa69db1",
      "logs": [
        {
          "address": "0x974fdd7f24b115e47ca15cc5b0703ef5277237e0",
          "topics": [
            "0x8c5be1e5ebec7d5bd14f71427d1e84f3dd0314c0f7b2291e5b200ac8c7c3b925",
            "0x000000000000000000000000a19da2097332e962faabd6171587bce04b7878ef",
            "0x0000000000000000000000000bf3de8c5d3e8a2b34d2beeb17abfcebaf363a59"
          ],
          "data": "0x00000000000000000000000000000000000000000000000000000000000186a0",
          "blockHash": "0x750b4a30e7ed0dc5e64c86775df1b3d73f22985ee0d65dfbbaf0375447d434b5",
          "blockNumber": "0x9f68e8",
          "blockTimestamp": "0x69b5ba08",
          "transactionHash": "0xf77b2db8bd19d7fb36627484184bc5927c5d7b44548f2b5907463ab82ca8697b",
          "transactionIndex": "0x68",
          "logIndex": "0xc3",
          "removed": false
        }
      ],
      "logsBloom": "0x00000000000040100000000000000000000000000000000000000000000000000000000000000100000000000000000000000000000000000000000000200000000000000000000000000000000000000000000000000000000000000000000000000000000100000000000000000000000800000000000020000000000000000000000000000000000000000000000000000000000000000000000000000000020000000000080000000000800000000000000000000000000000000000000000000000000000000000000000004000000000000000000000000000000000000010000000000000000000000000000000000000000000000000000000000000",
      "type": "0x2",
      "transactionHash": "0xf77b2db8bd19d7fb36627484184bc5927c5d7b44548f2b5907463ab82ca8697b",
      "transactionIndex": "0x68",
      "blockHash": "0x750b4a30e7ed0dc5e64c86775df1b3d73f22985ee0d65dfbbaf0375447d434b5",
      "blockNumber": "0x9f68e8",
      "gasUsed": "0xb759",
      "effectiveGasPrice": "0xf4249",
      "from": "0xa19da2097332e962faabd6171587bce04b7878ef",
      "to": "0x974fdd7f24b115e47ca15cc5b0703ef5277237e0",
      "contractAddress": null
    },
    {
      "status": "0x1",
      "cumulativeGasUsed": "0xab3d23",
      "logs": [
        {
          "address": "0x779877a7b0d9e8603169ddbd7836e478b4624789",
          "topics": [
            "0xddf252ad1be2c89b69c2b068fc378daa952ba7f163c4a11628f55a4df523b3ef",
            "0x000000000000000000000000a19da2097332e962faabd6171587bce04b7878ef",
            "0x00000000000000000000000023a5084fa78104f3df11c63ae59fcac4f6ad9dee"
          ],
          "data": "0x00000000000000000000000000000000000000000000000000709685044c64c9",
          "blockHash": "0x750b4a30e7ed0dc5e64c86775df1b3d73f22985ee0d65dfbbaf0375447d434b5",
          "blockNumber": "0x9f68e8",
          "blockTimestamp": "0x69b5ba08",
          "transactionHash": "0x01aee5d57de84ae0fbda3beaca5ea8515f44433b17867c0d00acf4a02fe1689c",
          "transactionIndex": "0x69",
          "logIndex": "0xc4",
          "removed": false
        },
        {
          "address": "0x779877a7b0d9e8603169ddbd7836e478b4624789",
          "topics": [
            "0x8c5be1e5ebec7d5bd14f71427d1e84f3dd0314c0f7b2291e5b200ac8c7c3b925",
            "0x000000000000000000000000a19da2097332e962faabd6171587bce04b7878ef",
            "0x0000000000000000000000000bf3de8c5d3e8a2b34d2beeb17abfcebaf363a59"
          ],
          "data": "0x0000000000000000000000000000000000000000000000000000000000000000",
          "blockHash": "0x750b4a30e7ed0dc5e64c86775df1b3d73f22985ee0d65dfbbaf0375447d434b5",
          "blockNumber": "0x9f68e8",
          "blockTimestamp": "0x69b5ba08",
          "transactionHash": "0x01aee5d57de84ae0fbda3beaca5ea8515f44433b17867c0d00acf4a02fe1689c",
          "transactionIndex": "0x69",
          "logIndex": "0xc5",
          "removed": false
        },
        {
          "address": "0x974fdd7f24b115e47ca15cc5b0703ef5277237e0",
          "topics": [
            "0xddf252ad1be2c89b69c2b068fc378daa952ba7f163c4a11628f55a4df523b3ef",
            "0x0000000000000000000000000000000000000000000000000000000000000000",
            "0x000000000000000000000000a19da2097332e962faabd6171587bce04b7878ef"
          ],
          "data": "0x0000000000000000000000000000000000000000000000000000000000000003",
          "blockHash": "0x750b4a30e7ed0dc5e64c86775df1b3d73f22985ee0d65dfbbaf0375447d434b5",
          "blockNumber": "0x9f68e8",
          "blockTimestamp": "0x69b5ba08",
          "transactionHash": "0x01aee5d57de84ae0fbda3beaca5ea8515f44433b17867c0d00acf4a02fe1689c",
          "transactionIndex": "0x69",
          "logIndex": "0xc6",
          "removed": false
        },
        {
          "address": "0x974fdd7f24b115e47ca15cc5b0703ef5277237e0",
          "topics": [
            "0xddf252ad1be2c89b69c2b068fc378daa952ba7f163c4a11628f55a4df523b3ef",
            "0x0000000000000000000000000000000000000000000000000000000000000000",
            "0x000000000000000000000000acc201a61afa60448f0492db59c7adc0b7b3900b"
          ],
          "data": "0x0000000000000000000000000000000000000000000000000000000000000000",
          "blockHash": "0x750b4a30e7ed0dc5e64c86775df1b3d73f22985ee0d65dfbbaf0375447d434b5",
          "blockNumber": "0x9f68e8",
          "blockTimestamp": "0x69b5ba08",
          "transactionHash": "0x01aee5d57de84ae0fbda3beaca5ea8515f44433b17867c0d00acf4a02fe1689c",
          "transactionIndex": "0x69",
          "logIndex": "0xc7",
          "removed": false
        },
        {
          "address": "0x974fdd7f24b115e47ca15cc5b0703ef5277237e0",
          "topics": [
            "0xddf252ad1be2c89b69c2b068fc378daa952ba7f163c4a11628f55a4df523b3ef",
            "0x000000000000000000000000a19da2097332e962faabd6171587bce04b7878ef",
            "0x000000000000000000000000acc201a61afa60448f0492db59c7adc0b7b3900b"
          ],
          "data": "0x00000000000000000000000000000000000000000000000000000000000186a0",
          "blockHash": "0x750b4a30e7ed0dc5e64c86775df1b3d73f22985ee0d65dfbbaf0375447d434b5",
          "blockNumber": "0x9f68e8",
          "blockTimestamp": "0x69b5ba08",
          "transactionHash": "0x01aee5d57de84ae0fbda3beaca5ea8515f44433b17867c0d00acf4a02fe1689c",
          "transactionIndex": "0x69",
          "logIndex": "0xc8",
          "removed": false
        },
        {
          "address": "0xacc201a61afa60448f0492db59c7adc0b7b3900b",
          "topics": [
            "0xff0133389f9bb82d5b9385826160eaf2328039f6fa950eeb8cf0836da8178944",
            "0x0000000000000000000000000000000000000000000000005fbc02272fbf20b7"
          ],
          "data": "0x000000000000000000000000974fdd7f24b115e47ca15cc5b0703ef5277237e000000000000000000000000000000000000000000000000000000000000186a0",
          "blockHash": "0x750b4a30e7ed0dc5e64c86775df1b3d73f22985ee0d65dfbbaf0375447d434b5",
          "blockNumber": "0x9f68e8",
          "blockTimestamp": "0x69b5ba08",
          "transactionHash": "0x01aee5d57de84ae0fbda3beaca5ea8515f44433b17867c0d00acf4a02fe1689c",
          "transactionIndex": "0x69",
          "logIndex": "0xc9",
          "removed": false
        },
        {
          "address": "0x974fdd7f24b115e47ca15cc5b0703ef5277237e0",
          "topics": [
            "0xddf252ad1be2c89b69c2b068fc378daa952ba7f163c4a11628f55a4df523b3ef",
            "0x0000000000000000000000000000000000000000000000000000000000000000",
            "0x000000000000000000000000acc201a61afa60448f0492db59c7adc0b7b3900b"
          ],
          "data": "0x0000000000000000000000000000000000000000000000000000000000000000",
          "blockHash": "0x750b4a30e7ed0dc5e64c86775df1b3d73f22985ee0d65dfbbaf0375447d434b5",
          "blockNumber": "0x9f68e8",
          "blockTimestamp": "0x69b5ba08",
          "transactionHash": "0x01aee5d57de84ae0fbda3beaca5ea8515f44433b17867c0d00acf4a02fe1689c",
          "transactionIndex": "0x69",
          "logIndex": "0xca",
          "removed": false
        },
        {
          "address": "0x974fdd7f24b115e47ca15cc5b0703ef5277237e0",
          "topics": [
            "0xddf252ad1be2c89b69c2b068fc378daa952ba7f163c4a11628f55a4df523b3ef",
            "0x000000000000000000000000acc201a61afa60448f0492db59c7adc0b7b3900b",
            "0x0000000000000000000000000000000000000000000000000000000000000000"
          ],
          "data": "0x00000000000000000000000000000000000000000000000000000000000186a0",
          "blockHash": "0x750b4a30e7ed0dc5e64c86775df1b3d73f22985ee0d65dfbbaf0375447d434b5",
          "blockNumber": "0x9f68e8",
          "blockTimestamp": "0x69b5ba08",
          "transactionHash": "0x01aee5d57de84ae0fbda3beaca5ea8515f44433b17867c0d00acf4a02fe1689c",
          "transactionIndex": "0x69",
          "logIndex": "0xcb",
          "removed": false
        },
        {
          "address": "0x23a5084fa78104f3df11c63ae59fcac4f6ad9dee",
          "topics": [
            "0x192442a2b2adb6a7948f097023cb6b57d29d3a7a5dd33e6666d33c39cc456f32",
            "0x0000000000000000000000000000000000000000000000005fbc02272fbf20b7",
            "0x0000000000000000000000000000000000000000000000000000000000000008"
          ],
          "data": "0x000000000000000000000000000000000000000000000000000000000000002010d28b7437b304450b6f8ec8c1d0b17e3c86afab37147ccedc854e6f6ac55f2e000000000000000000000000000000000000000000000000de41ba4fc9d91ad90000000000000000000000000000000000000000000000005fbc02272fbf20b700000000000000000000000000000000000000000000000000000000000000080000000000000000000000000000000000000000000000000000000000000001000000000000000000000000a19da2097332e962faabd6171587bce04b7878ef00000000000000000000000000000000000000000000000000000000000001a000000000000000000000000000000000000000000000000000000000000001c00000000000000000000000000000000000000000000000000000000000000200000000000000000000000000779877a7b0d9e8603169ddbd7836e478b462478900000000000000000000000000000000000000000000000000709685044c64c900000000000000000000000000000000000000000000000000709685044c64c9000000000000000000000000000000000000000000000000000000000000028000000000000000000000000000000000000000000000000000000000000000000000000000000000000000000000000000000000000000000000000000000020000000000000000000000000a19da2097332e962faabd6171587bce04b7878ef0000000000000000000000000000000000000000000000000000000000000044181dcf10000000000000000000000000000000000000000000000000000000000007a12000000000000000000000000000000000000000000000000000000000000000000000000000000000000000000000000000000000000000000000000000000000000000000000000000000000000000000000000000000000000000010000000000000000000000000000000000000000000000000000000000000020000000000000000000000000acc201a61afa60448f0492db59c7adc0b7b3900b00000000000000000000000000000000000000000000000000000000000000a000000000000000000000000000000000000000000000000000000000000000e000000000000000000000000000000000000000000000000000000000000186a000000000000000000000000000000000000000000000000000000000000001200000000000000000000000000000000000000000000000000000000000000020000000000000000000000000b5cbba4ef8911acc764983df5f1155a4d2098c3700000000000000000000000000000000000000000000000000000000000000200000000000000000000000000000000000000000000000000000000ba43b740000000000000000000000000000000000000000000000000000000000000000200000000000000000000000000000000000000000000000000000000000015f90",
          "blockHash": "0x750b4a30e7ed0dc5e64c86775df1b3d73f22985ee0d65dfbbaf0375447d434b5",
          "blockNumber": "0x9f68e8",
          "blockTimestamp": "0x69b5ba08",
          "transactionHash": "0x01aee5d57de84ae0fbda3beaca5ea8515f44433b17867c0d00acf4a02fe1689c",
          "transactionIndex": "0x69",
          "logIndex": "0xcc",
          "removed": false
        }
      ],
      "logsBloom": "0x00080004000040100000000000000000000000200000000000000000000000000000008000000100000000000000000000000100080080000000000000200000000000000000000000100008040000000000400000000000000000000000000000000000020100000000000000000840000800000000000020000010000000000080000000000000000000000000800000000000000002008000000000000080020000000000088000000000810000000000000000000000000002040400000040000002084000000000000000004000000000000000000100000000000020000010000000000000000000000000200000000000000000000002000000000000",
      "type": "0x2",
      "transactionHash": "0x01aee5d57de84ae0fbda3beaca5ea8515f44433b17867c0d00acf4a02fe1689c",
      "transactionIndex": "0x69",
      "blockHash": "0x750b4a30e7ed0dc5e64c86775df1b3d73f22985ee0d65dfbbaf0375447d434b5",
      "blockNumber": "0x9f68e8",
      "gasUsed": "0x49f72",
      "effectiveGasPrice": "0xf4249",
      "from": "0xa19da2097332e962faabd6171587bce04b7878ef",
      "to": "0x0bf3de8c5d3e8a2b34d2beeb17abfcebaf363a59",
      "contractAddress": null
    }
  ],
  "libraries": [],
  "pending": [],
  "returns": {},
  "timestamp": 1773517321391,
  "chain": 11155111,
  "commit": "11c2179"
}